{
  "_format": "hh-sol-artifact-1",
  "contractName": "FileStorage",
  "sourceName": "contracts/FIleStorage.sol",
  "abi": [
    {
      "inputs": [],
      "stateMutability": "nonpayable",
      "type": "constructor"
    },
    {
      "anonymous": false,
      "inputs": [
        {
          "indexed": false,
          "internalType": "string",
          "name": "regNo",
          "type": "string"
        },
        {
          "indexed": false,
          "internalType": "string",
          "name": "userEmail",
          "type": "string"
        },
        {
          "indexed": false,
          "internalType": "string",
          "name": "fileHash",
          "type": "string"
        }
      ],
      "name": "FileStored",
      "type": "event"
    },
    {
      "anonymous": false,
      "inputs": [
        {
          "indexed": false,
          "internalType": "string",
          "name": "userEmail",
          "type": "string"
        }
      ],
      "name": "NewUserCreated",
      "type": "event"
    },
    {
      "inputs": [],
      "name": "admin",
      "outputs": [
        {
          "internalType": "address",
          "name": "",
          "type": "address"
        }
      ],
      "stateMutability": "view",
      "type": "function"
    },
    {
      "inputs": [
        {
          "internalType": "string",
          "name": "",
          "type": "string"
        },
        {
          "internalType": "uint256",
          "name": "",
          "type": "uint256"
        }
      ],
      "name": "filesByUser",
      "outputs": [
        {
          "internalType": "string",
          "name": "regNo",
          "type": "string"
        },
        {
          "internalType": "string",
          "name": "userEmail",
          "type": "string"
        },
        {
          "internalType": "string",
          "name": "fileHash",
          "type": "string"
        },
        {
          "internalType": "bool",
          "name": "exists",
          "type": "bool"
        }
      ],
      "stateMutability": "view",
      "type": "function"
    },
    {
      "inputs": [
        {
          "internalType": "string",
          "name": "regNo",
          "type": "string"
        },
        {
          "internalType": "string",
          "name": "userEmail",
          "type": "string"
        }
      ],
      "name": "getFile",
      "outputs": [
        {
          "internalType": "string",
          "name": "",
          "type": "string"
        },
        {
          "internalType": "string",
          "name": "",
          "type": "string"
        },
        {
          "internalType": "string",
          "name": "",
          "type": "string"
        }
      ],
      "stateMutability": "view",
      "type": "function"
    },
    {
      "inputs": [
        {
          "internalType": "string",
          "name": "userEmail",
          "type": "string"
        }
      ],
      "name": "getFilesByUser",
      "outputs": [
        {
          "components": [
            {
              "internalType": "string",
              "name": "regNo",
              "type": "string"
            },
            {
              "internalType": "string",
              "name": "userEmail",
              "type": "string"
            },
            {
              "internalType": "string",
              "name": "fileHash",
              "type": "string"
            },
            {
              "internalType": "bool",
              "name": "exists",
              "type": "bool"
            }
          ],
          "internalType": "struct FileStorage.File[]",
          "name": "",
          "type": "tuple[]"
        }
      ],
      "stateMutability": "view",
      "type": "function"
    },
    {
      "inputs": [
        {
          "internalType": "string",
          "name": "regNo",
          "type": "string"
        },
        {
          "internalType": "string",
          "name": "userEmail",
          "type": "string"
        },
        {
          "internalType": "string",
          "name": "fileHash",
          "type": "string"
        }
      ],
      "name": "storeFile",
      "outputs": [],
      "stateMutability": "nonpayable",
      "type": "function"
    },
    {
      "inputs": [
        {
          "internalType": "string",
          "name": "userEmail",
          "type": "string"
        }
      ],
      "name": "userExists",
      "outputs": [
        {
          "internalType": "bool",
          "name": "",
          "type": "bool"
        }
      ],
      "stateMutability": "view",
      "type": "function"
    }
  ],
  "bytecode": "0x608060405234801561001057600080fd5b50600080546001600160a01b0319163317905561143f806100326000396000f3fe608060405234801561001057600080fd5b50600436106100625760003560e01c80632144cc76146100675780637dd77d2b1461009357806391548ace146100a8578063d4f63225146100ca578063f851a440146100ea578063fddc968e14610115575b600080fd5b61007a610075366004610edb565b610138565b60405161008a9493929190610f70565b60405180910390f35b6100a66100a1366004610fbd565b61032f565b005b6100bb6100b6366004611045565b6105f9565b60405161008a939291906110a9565b6100dd6100d83660046110ec565b6109a9565b60405161008a9190611129565b6000546100fd906001600160a01b031681565b6040516001600160a01b03909116815260200161008a565b6101286101233660046110ec565b610bee565b604051901515815260200161008a565b8151602081840181018051600182529282019185019190912091905280548290811061016357600080fd5b906000526020600020906004020160009150915050806000018054610187906111d7565b80601f01602080910402602001604051908101604052809291908181526020018280546101b3906111d7565b80156102005780601f106101d557610100808354040283529160200191610200565b820191906000526020600020905b8154815290600101906020018083116101e357829003601f168201915b505050505090806001018054610215906111d7565b80601f0160208091040260200160405190810160405280929190818152602001828054610241906111d7565b801561028e5780601f106102635761010080835404028352916020019161028e565b820191906000526020600020905b81548152906001019060200180831161027157829003601f168201915b5050505050908060020180546102a3906111d7565b80601f01602080910402602001604051908101604052809291908181526020018280546102cf906111d7565b801561031c5780601f106102f15761010080835404028352916020019161031c565b820191906000526020600020905b8154815290600101906020018083116102ff57829003601f168201915b5050506003909301549192505060ff1684565b6000546001600160a01b0316331461039c5760405162461bcd60e51b815260206004820152602560248201527f4f6e6c79207468652061646d696e2063616e2063616c6c20746869732066756e60448201526431ba34b7b760d91b60648201526084015b60405180910390fd5b60006001836040516103ae9190611211565b908152602001604051809103902090506000805b82548110156104c257856040516020016103dc9190611211565b604051602081830303815290604052805190602001208382815481106104045761040461122d565b90600052602060002090600402016000016040516020016104259190611243565b60405160208183030381529060405280519060200120036104b057838382815481106104535761045361122d565b906000526020600020906004020160020190816104709190611308565b5060018382815481106104855761048561122d565b60009182526020909120600490910201600301805460ff1916911515919091179055600191506104c2565b806104ba816113c8565b9150506103c2565b50806105b757600060405180608001604052808781526020018681526020018581526020016001151581525090506001856040516105009190611211565b9081526040516020918190038201902080546001810182556000918252919020825183926004029091019081906105379082611308565b506020820151600182019061054c9082611308565b50604082015160028201906105619082611308565b50606091909101516003909101805460ff19169115159190911790556040517f0659804f1bdde4d23249ac7b7f5cd0b8dbea665387f0f0556fee1d7c05c09461906105ad9087906113ef565b60405180910390a1505b7f693923525d6cd5a186e079eb564e94b619377721de674b8aaa46acb89c1280a18585856040516105ea939291906110a9565b60405180910390a15050505050565b606080606060006001856040516106109190611211565b9081526020016040518091039020805480602002602001604051908101604052809291908181526020016000905b828210156108385783829060005260206000209060040201604051806080016040529081600082018054610671906111d7565b80601f016020809104026020016040519081016040528092919081815260200182805461069d906111d7565b80156106ea5780601f106106bf576101008083540402835291602001916106ea565b820191906000526020600020905b8154815290600101906020018083116106cd57829003601f168201915b50505050508152602001600182018054610703906111d7565b80601f016020809104026020016040519081016040528092919081815260200182805461072f906111d7565b801561077c5780601f106107515761010080835404028352916020019161077c565b820191906000526020600020905b81548152906001019060200180831161075f57829003601f168201915b50505050508152602001600282018054610795906111d7565b80601f01602080910402602001604051908101604052809291908181526020018280546107c1906111d7565b801561080e5780601f106107e35761010080835404028352916020019161080e565b820191906000526020600020905b8154815290600101906020018083116107f157829003601f168201915b50505091835250506003919091015460ff161515602091820152908252600192909201910161063e565b50505050905060005b8151811015610933578660405160200161085b9190611211565b604051602081830303815290604052805190602001208282815181106108835761088361122d565b60200260200101516000015160405160200161089f9190611211565b6040516020818303038152906040528051906020012003610921578181815181106108cc576108cc61122d565b6020026020010151600001518282815181106108ea576108ea61122d565b6020026020010151602001518383815181106109085761090861122d565b60200260200101516040015194509450945050506109a2565b8061092b816113c8565b915050610841565b5060405162461bcd60e51b815260206004820152603960248201527f46696c65206e6f7420666f756e6420666f722074686520676976656e2075736560448201527f7220616e6420726567697374726174696f6e206e756d626572000000000000006064820152608401610393565b9250925092565b60606001826040516109bb9190611211565b9081526020016040518091039020805480602002602001604051908101604052809291908181526020016000905b82821015610be35783829060005260206000209060040201604051806080016040529081600082018054610a1c906111d7565b80601f0160208091040260200160405190810160405280929190818152602001828054610a48906111d7565b8015610a955780601f10610a6a57610100808354040283529160200191610a95565b820191906000526020600020905b815481529060010190602001808311610a7857829003601f168201915b50505050508152602001600182018054610aae906111d7565b80601f0160208091040260200160405190810160405280929190818152602001828054610ada906111d7565b8015610b275780601f10610afc57610100808354040283529160200191610b27565b820191906000526020600020905b815481529060010190602001808311610b0a57829003601f168201915b50505050508152602001600282018054610b40906111d7565b80601f0160208091040260200160405190810160405280929190818152602001828054610b6c906111d7565b8015610bb95780601f10610b8e57610100808354040283529160200191610bb9565b820191906000526020600020905b815481529060010190602001808311610b9c57829003601f168201915b50505091835250506003919091015460ff16151560209182015290825260019290920191016109e9565b505050509050919050565b600080600183604051610c019190611211565b9081526020016040518091039020805480602002602001604051908101604052809291908181526020016000905b82821015610e295783829060005260206000209060040201604051806080016040529081600082018054610c62906111d7565b80601f0160208091040260200160405190810160405280929190818152602001828054610c8e906111d7565b8015610cdb5780601f10610cb057610100808354040283529160200191610cdb565b820191906000526020600020905b815481529060010190602001808311610cbe57829003601f168201915b50505050508152602001600182018054610cf4906111d7565b80601f0160208091040260200160405190810160405280929190818152602001828054610d20906111d7565b8015610d6d5780601f10610d4257610100808354040283529160200191610d6d565b820191906000526020600020905b815481529060010190602001808311610d5057829003601f168201915b50505050508152602001600282018054610d86906111d7565b80601f0160208091040260200160405190810160405280929190818152602001828054610db2906111d7565b8015610dff5780601f10610dd457610100808354040283529160200191610dff565b820191906000526020600020905b815481529060010190602001808311610de257829003601f168201915b50505091835250506003919091015460ff1615156020918201529082526001929092019101610c2f565b50509151151595945050505050565b634e487b7160e01b600052604160045260246000fd5b600082601f830112610e5f57600080fd5b813567ffffffffffffffff80821115610e7a57610e7a610e38565b604051601f8301601f19908116603f01168101908282118183101715610ea257610ea2610e38565b81604052838152866020858801011115610ebb57600080fd5b836020870160208301376000602085830101528094505050505092915050565b60008060408385031215610eee57600080fd5b823567ffffffffffffffff811115610f0557600080fd5b610f1185828601610e4e565b95602094909401359450505050565b60005b83811015610f3b578181015183820152602001610f23565b50506000910152565b60008151808452610f5c816020860160208601610f20565b601f01601f19169290920160200192915050565b608081526000610f836080830187610f44565b8281036020840152610f958187610f44565b90508281036040840152610fa98186610f44565b915050821515606083015295945050505050565b600080600060608486031215610fd257600080fd5b833567ffffffffffffffff80821115610fea57600080fd5b610ff687838801610e4e565b9450602086013591508082111561100c57600080fd5b61101887838801610e4e565b9350604086013591508082111561102e57600080fd5b5061103b86828701610e4e565b9150509250925092565b6000806040838503121561105857600080fd5b823567ffffffffffffffff8082111561107057600080fd5b61107c86838701610e4e565b9350602085013591508082111561109257600080fd5b5061109f85828601610e4e565b9150509250929050565b6060815260006110bc6060830186610f44565b82810360208401526110ce8186610f44565b905082810360408401526110e28185610f44565b9695505050505050565b6000602082840312156110fe57600080fd5b813567ffffffffffffffff81111561111557600080fd5b61112184828501610e4e565b949350505050565b60006020808301818452808551808352604092508286019150828160051b87010184880160005b838110156111c957603f1989840301855281516080815181865261117682870182610f44565b915050888201518582038a87015261118e8282610f44565b91505087820151858203898701526111a68282610f44565b606093840151151596909301959095525094870194925090860190600101611150565b509098975050505050505050565b600181811c908216806111eb57607f821691505b60208210810361120b57634e487b7160e01b600052602260045260246000fd5b50919050565b60008251611223818460208701610f20565b9190910192915050565b634e487b7160e01b600052603260045260246000fd5b6000808354611251816111d7565b60018281168015611269576001811461127e576112ad565b60ff19841687528215158302870194506112ad565b8760005260208060002060005b858110156112a45781548a82015290840190820161128b565b50505082870194505b50929695505050505050565b601f82111561130357600081815260208120601f850160051c810160208610156112e05750805b601f850160051c820191505b818110156112ff578281556001016112ec565b5050505b505050565b815167ffffffffffffffff81111561132257611322610e38565b6113368161133084546111d7565b846112b9565b602080601f83116001811461136b57600084156113535750858301515b600019600386901b1c1916600185901b1785556112ff565b600085815260208120601f198616915b8281101561139a5788860151825594840194600190910190840161137b565b50858210156113b85787850151600019600388901b60f8161c191681555b5050505050600190811b01905550565b6000600182016113e857634e487b7160e01b600052601160045260246000fd5b5060010190565b6020815260006114026020830184610f44565b939250505056fea2646970667358221220a049f300ccbdd08ba1161746a9beddd5018d83d7a6fa584679eb31683413a93864736f6c63430008110033",
  "linkReferences": {},
  "deployedLinkReferences": {}
}